{
  "_format": "hh-sol-artifact-1",
  "contractName": "ERC721AI",
  "sourceName": "contracts/ERC721NFT.sol",
  "abi": [
    {
      "inputs": [],
      "stateMutability": "nonpayable",
      "type": "constructor"
    },
    {
      "anonymous": false,
      "inputs": [
        {
          "indexed": true,
          "internalType": "address",
          "name": "owner",
          "type": "address"
        },
        {
          "indexed": true,
          "internalType": "address",
          "name": "approved",
          "type": "address"
        },
        {
          "indexed": true,
          "internalType": "uint256",
          "name": "tokenId",
          "type": "uint256"
        }
      ],
      "name": "Approval",
      "type": "event"
    },
    {
      "anonymous": false,
      "inputs": [
        {
          "indexed": true,
          "internalType": "address",
          "name": "owner",
          "type": "address"
        },
        {
          "indexed": true,
          "internalType": "address",
          "name": "operator",
          "type": "address"
        },
        {
          "indexed": false,
          "internalType": "bool",
          "name": "approved",
          "type": "bool"
        }
      ],
      "name": "ApprovalForAll",
      "type": "event"
    },
    {
      "anonymous": false,
      "inputs": [
        {
          "indexed": false,
          "internalType": "uint256",
          "name": "_fromTokenId",
          "type": "uint256"
        },
        {
          "indexed": false,
          "internalType": "uint256",
          "name": "_toTokenId",
          "type": "uint256"
        }
      ],
      "name": "BatchMetadataUpdate",
      "type": "event"
    },
    {
      "anonymous": false,
      "inputs": [
        {
          "indexed": false,
          "internalType": "uint8",
          "name": "version",
          "type": "uint8"
        }
      ],
      "name": "Initialized",
      "type": "event"
    },
    {
      "anonymous": false,
      "inputs": [
        {
          "indexed": false,
          "internalType": "uint256",
          "name": "_tokenId",
          "type": "uint256"
        }
      ],
      "name": "MetadataUpdate",
      "type": "event"
    },
    {
      "anonymous": false,
      "inputs": [
        {
          "indexed": true,
          "internalType": "address",
          "name": "previousOwner",
          "type": "address"
        },
        {
          "indexed": true,
          "internalType": "address",
          "name": "newOwner",
          "type": "address"
        }
      ],
      "name": "OwnershipTransferred",
      "type": "event"
    },
    {
      "anonymous": false,
      "inputs": [
        {
          "indexed": true,
          "internalType": "uint256",
          "name": "tokenId",
          "type": "uint256"
        },
        {
          "indexed": true,
          "internalType": "address",
          "name": "from",
          "type": "address"
        },
        {
          "indexed": true,
          "internalType": "address",
          "name": "to",
          "type": "address"
        }
      ],
      "name": "PositionTransferred",
      "type": "event"
    },
    {
      "anonymous": false,
      "inputs": [
        {
          "indexed": true,
          "internalType": "uint256",
          "name": "tokenId",
          "type": "uint256"
        },
        {
          "indexed": true,
          "internalType": "address",
          "name": "to",
          "type": "address"
        }
      ],
      "name": "TokenMinted",
      "type": "event"
    },
    {
      "anonymous": false,
      "inputs": [
        {
          "indexed": true,
          "internalType": "address",
          "name": "from",
          "type": "address"
        },
        {
          "indexed": true,
          "internalType": "address",
          "name": "to",
          "type": "address"
        },
        {
          "indexed": true,
          "internalType": "uint256",
          "name": "tokenId",
          "type": "uint256"
        }
      ],
      "name": "Transfer",
      "type": "event"
    },
    {
      "inputs": [
        {
          "internalType": "address",
          "name": "to",
          "type": "address"
        },
        {
          "internalType": "uint256",
          "name": "tokenId",
          "type": "uint256"
        }
      ],
      "name": "approve",
      "outputs": [],
      "stateMutability": "nonpayable",
      "type": "function"
    },
    {
      "inputs": [
        {
          "internalType": "address",
          "name": "owner",
          "type": "address"
        }
      ],
      "name": "balanceOf",
      "outputs": [
        {
          "internalType": "uint256",
          "name": "",
          "type": "uint256"
        }
      ],
      "stateMutability": "view",
      "type": "function"
    },
    {
      "inputs": [
        {
          "internalType": "uint256",
          "name": "tokenId",
          "type": "uint256"
        }
      ],
      "name": "burn",
      "outputs": [],
      "stateMutability": "nonpayable",
      "type": "function"
    },
    {
      "inputs": [
        {
          "internalType": "uint256",
          "name": "tokenId",
          "type": "uint256"
        }
      ],
      "name": "getApproved",
      "outputs": [
        {
          "internalType": "address",
          "name": "",
          "type": "address"
        }
      ],
      "stateMutability": "view",
      "type": "function"
    },
    {
      "inputs": [
        {
          "internalType": "uint256",
          "name": "tokenId",
          "type": "uint256"
        }
      ],
      "name": "getTokenId",
      "outputs": [
        {
          "components": [
            {
              "internalType": "string",
              "name": "name",
              "type": "string"
            },
            {
              "internalType": "string",
              "name": "tokenURI",
              "type": "string"
            },
            {
              "internalType": "uint256",
              "name": "createdAt",
              "type": "uint256"
            },
            {
              "internalType": "uint256",
              "name": "updatedAt",
              "type": "uint256"
            }
          ],
          "internalType": "struct ERC721AI.Metadata",
          "name": "",
          "type": "tuple"
        }
      ],
      "stateMutability": "view",
      "type": "function"
    },
    {
      "inputs": [],
      "name": "initialize",
      "outputs": [],
      "stateMutability": "nonpayable",
      "type": "function"
    },
    {
      "inputs": [
        {
          "internalType": "address",
          "name": "owner",
          "type": "address"
        },
        {
          "internalType": "address",
          "name": "operator",
          "type": "address"
        }
      ],
      "name": "isApprovedForAll",
      "outputs": [
        {
          "internalType": "bool",
          "name": "",
          "type": "bool"
        }
      ],
      "stateMutability": "view",
      "type": "function"
    },
    {
      "inputs": [
        {
          "internalType": "address",
          "name": "to",
          "type": "address"
        },
        {
          "internalType": "string",
          "name": "_name",
          "type": "string"
        },
        {
          "internalType": "string",
          "name": "_tokenURI",
          "type": "string"
        }
      ],
      "name": "mintAI",
      "outputs": [
        {
          "internalType": "uint256",
          "name": "tokenId",
          "type": "uint256"
        }
      ],
      "stateMutability": "nonpayable",
      "type": "function"
    },
    {
      "inputs": [],
      "name": "name",
      "outputs": [
        {
          "internalType": "string",
          "name": "",
          "type": "string"
        }
      ],
      "stateMutability": "view",
      "type": "function"
    },
    {
      "inputs": [],
      "name": "owner",
      "outputs": [
        {
          "internalType": "address",
          "name": "",
          "type": "address"
        }
      ],
      "stateMutability": "view",
      "type": "function"
    },
    {
      "inputs": [
        {
          "internalType": "uint256",
          "name": "tokenId",
          "type": "uint256"
        }
      ],
      "name": "ownerOf",
      "outputs": [
        {
          "internalType": "address",
          "name": "",
          "type": "address"
        }
      ],
      "stateMutability": "view",
      "type": "function"
    },
    {
      "inputs": [],
      "name": "renounceOwnership",
      "outputs": [],
      "stateMutability": "nonpayable",
      "type": "function"
    },
    {
      "inputs": [
        {
          "internalType": "address",
          "name": "from",
          "type": "address"
        },
        {
          "internalType": "address",
          "name": "to",
          "type": "address"
        },
        {
          "internalType": "uint256",
          "name": "tokenId",
          "type": "uint256"
        }
      ],
      "name": "safeTransferFrom",
      "outputs": [],
      "stateMutability": "nonpayable",
      "type": "function"
    },
    {
      "inputs": [
        {
          "internalType": "address",
          "name": "from",
          "type": "address"
        },
        {
          "internalType": "address",
          "name": "to",
          "type": "address"
        },
        {
          "internalType": "uint256",
          "name": "tokenId",
          "type": "uint256"
        },
        {
          "internalType": "bytes",
          "name": "data",
          "type": "bytes"
        }
      ],
      "name": "safeTransferFrom",
      "outputs": [],
      "stateMutability": "nonpayable",
      "type": "function"
    },
    {
      "inputs": [
        {
          "internalType": "address",
          "name": "operator",
          "type": "address"
        },
        {
          "internalType": "bool",
          "name": "approved",
          "type": "bool"
        }
      ],
      "name": "setApprovalForAll",
      "outputs": [],
      "stateMutability": "nonpayable",
      "type": "function"
    },
    {
      "inputs": [
        {
          "internalType": "address",
          "name": "user",
          "type": "address"
        }
      ],
      "name": "setVerifiedUser",
      "outputs": [],
      "stateMutability": "nonpayable",
      "type": "function"
    },
    {
      "inputs": [
        {
          "internalType": "bytes4",
          "name": "interfaceId",
          "type": "bytes4"
        }
      ],
      "name": "supportsInterface",
      "outputs": [
        {
          "internalType": "bool",
          "name": "",
          "type": "bool"
        }
      ],
      "stateMutability": "view",
      "type": "function"
    },
    {
      "inputs": [],
      "name": "symbol",
      "outputs": [
        {
          "internalType": "string",
          "name": "",
          "type": "string"
        }
      ],
      "stateMutability": "view",
      "type": "function"
    },
    {
      "inputs": [],
      "name": "tokenCounter",
      "outputs": [
        {
          "internalType": "uint256",
          "name": "",
          "type": "uint256"
        }
      ],
      "stateMutability": "view",
      "type": "function"
    },
    {
      "inputs": [
        {
          "internalType": "uint256",
          "name": "tokenId",
          "type": "uint256"
        }
      ],
      "name": "tokenURI",
      "outputs": [
        {
          "internalType": "string",
          "name": "",
          "type": "string"
        }
      ],
      "stateMutability": "view",
      "type": "function"
    },
    {
      "inputs": [
        {
          "internalType": "address",
          "name": "from",
          "type": "address"
        },
        {
          "internalType": "address",
          "name": "to",
          "type": "address"
        },
        {
          "internalType": "uint256",
          "name": "tokenId",
          "type": "uint256"
        }
      ],
      "name": "transferFrom",
      "outputs": [],
      "stateMutability": "nonpayable",
      "type": "function"
    },
    {
      "inputs": [
        {
          "internalType": "address",
          "name": "newOwner",
          "type": "address"
        }
      ],
      "name": "transferOwnership",
      "outputs": [],
      "stateMutability": "nonpayable",
      "type": "function"
    },
    {
      "inputs": [
        {
          "internalType": "uint256",
          "name": "tokenId",
          "type": "uint256"
        },
        {
          "internalType": "address",
          "name": "to",
          "type": "address"
        }
      ],
      "name": "transferPosition",
      "outputs": [],
      "stateMutability": "nonpayable",
      "type": "function"
    },
    {
      "inputs": [
        {
          "internalType": "address",
          "name": "",
          "type": "address"
        }
      ],
      "name": "verifiedUsers",
      "outputs": [
        {
          "internalType": "bool",
          "name": "",
          "type": "bool"
        }
      ],
      "stateMutability": "view",
      "type": "function"
    }
  ],
  "bytecode": "0x60806040523480156200001157600080fd5b50620000226200002860201b60201c565b620001d2565b600060019054906101000a900460ff16156200007b576040517f08c379a0000000000000000000000000000000000000000000000000000000008152600401620000729062000175565b60405180910390fd5b60ff801660008054906101000a900460ff1660ff1614620000ec5760ff6000806101000a81548160ff021916908360ff1602179055507f7f26b83ff96e1f2b6a682f133852f6798a09c465da95921460cefb384740249860ff604051620000e39190620001b5565b60405180910390a15b565b600082825260208201905092915050565b7f496e697469616c697a61626c653a20636f6e747261637420697320696e69746960008201527f616c697a696e6700000000000000000000000000000000000000000000000000602082015250565b60006200015d602783620000ee565b91506200016a82620000ff565b604082019050919050565b6000602082019050818103600083015262000190816200014e565b9050919050565b600060ff82169050919050565b620001af8162000197565b82525050565b6000602082019050620001cc6000830184620001a4565b92915050565b6142b180620001e26000396000f3fe608060405234801561001057600080fd5b50600436106101585760003560e01c8063715018a6116100c3578063c87b56dd1161007c578063c87b56dd1461039b578063cf37e39a146103cb578063d082e381146103fb578063e35fe36614610419578063e985e9c514610449578063f2fde38b1461047957610158565b8063715018a6146103135780638129fc1c1461031d5780638da5cb5b1461032757806395d89b4114610345578063a22cb46514610363578063b88d4fde1461037f57610158565b806342842e0e1161011557806342842e0e1461024357806342966c681461025f57806355bd513f1461027b5780635c36538e146102975780636352211e146102b357806370a08231146102e357610158565b806301ffc9a71461015d57806306fdde031461018d578063081812fc146101ab578063095ea7b3146101db57806314ff5ea3146101f757806323b872dd14610227575b600080fd5b61017760048036038101906101729190612ae8565b610495565b6040516101849190612b30565b60405180910390f35b6101956104f6565b6040516101a29190612bdb565b60405180910390f35b6101c560048036038101906101c09190612c33565b610588565b6040516101d29190612ca1565b60405180910390f35b6101f560048036038101906101f09190612ce8565b6105ce565b005b610211600480360381019061020c9190612c33565b6106e5565b60405161021e9190612deb565b60405180910390f35b610241600480360381019061023c9190612e0d565b610893565b005b61025d60048036038101906102589190612e0d565b6108f3565b005b61027960048036038101906102749190612c33565b610913565b005b61029560048036038101906102909190612e60565b610a90565b005b6102b160048036038101906102ac9190612ea0565b610bc8565b005b6102cd60048036038101906102c89190612c33565b610c2c565b6040516102da9190612ca1565b60405180910390f35b6102fd60048036038101906102f89190612ea0565b610cb2565b60405161030a9190612edc565b60405180910390f35b61031b610d69565b005b610325610d7d565b005b61032f610f48565b60405161033c9190612ca1565b60405180910390f35b61034d610f72565b60405161035a9190612bdb565b60405180910390f35b61037d60048036038101906103789190612f23565b611004565b005b61039960048036038101906103949190613098565b61101a565b005b6103b560048036038101906103b09190612c33565b61107c565b6040516103c29190612bdb565b60405180910390f35b6103e560048036038101906103e091906131bc565b61118e565b6040516103f29190612edc565b60405180910390f35b610403611331565b6040516104109190612edc565b60405180910390f35b610433600480360381019061042e9190612ea0565b611338565b6040516104409190612b30565b60405180910390f35b610463600480360381019061045e9190613247565b611359565b6040516104709190612b30565b60405180910390f35b610493600480360381019061048e9190612ea0565b6113ed565b005b6000634906490660e01b7bffffffffffffffffffffffffffffffffffffffffffffffffffffffff1916827bffffffffffffffffffffffffffffffffffffffffffffffffffffffff191614806104ef57506104ee82611470565b5b9050919050565b606060658054610505906132b6565b80601f0160208091040260200160405190810160405280929190818152602001828054610531906132b6565b801561057e5780601f106105535761010080835404028352916020019161057e565b820191906000526020600020905b81548152906001019060200180831161056157829003601f168201915b5050505050905090565b600061059382611552565b6069600083815260200190815260200160002060009054906101000a900473ffffffffffffffffffffffffffffffffffffffff169050919050565b60006105d982610c2c565b90508073ffffffffffffffffffffffffffffffffffffffff168373ffffffffffffffffffffffffffffffffffffffff1603610649576040517f08c379a000000000000000000000000000000000000000000000000000000000815260040161064090613359565b60405180910390fd5b8073ffffffffffffffffffffffffffffffffffffffff1661066861159d565b73ffffffffffffffffffffffffffffffffffffffff16148061069757506106968161069161159d565b611359565b5b6106d6576040517f08c379a00000000000000000000000000000000000000000000000000000000081526004016106cd906133eb565b60405180910390fd5b6106e083836115a5565b505050565b6106ed6129f7565b6106f68261165e565b610735576040517f08c379a000000000000000000000000000000000000000000000000000000000815260040161072c90613457565b60405180910390fd5b61012e6000838152602001908152602001600020604051806080016040529081600082018054610764906132b6565b80601f0160208091040260200160405190810160405280929190818152602001828054610790906132b6565b80156107dd5780601f106107b2576101008083540402835291602001916107dd565b820191906000526020600020905b8154815290600101906020018083116107c057829003601f168201915b505050505081526020016001820180546107f6906132b6565b80601f0160208091040260200160405190810160405280929190818152602001828054610822906132b6565b801561086f5780601f106108445761010080835404028352916020019161086f565b820191906000526020600020905b81548152906001019060200180831161085257829003601f168201915b50505050508152602001600282015481526020016003820154815250509050919050565b6108a461089e61159d565b8261169f565b6108e3576040517f08c379a00000000000000000000000000000000000000000000000000000000081526004016108da906134e9565b60405180910390fd5b6108ee838383611734565b505050565b61090e8383836040518060200160405280600081525061101a565b505050565b61091b611a2d565b6109248161165e565b610963576040517f08c379a000000000000000000000000000000000000000000000000000000000815260040161095a90613457565b60405180910390fd5b3373ffffffffffffffffffffffffffffffffffffffff1661098382610c2c565b73ffffffffffffffffffffffffffffffffffffffff16146109d9576040517f08c379a00000000000000000000000000000000000000000000000000000000081526004016109d09061357b565b60405180910390fd5b6109e281611a7c565b61012e600082815260200190815260200160002060008082016000610a079190612a1f565b600182016000610a179190612a1f565b60028201600090556003820160009055505080600073ffffffffffffffffffffffffffffffffffffffff163373ffffffffffffffffffffffffffffffffffffffff167fddf252ad1be2c89b69c2b068fc378daa952ba7f163c4a11628f55a4df523b3ef60405160405180910390a4610a8d611acf565b50565b610a98611a2d565b610aa18261165e565b610ae0576040517f08c379a0000000000000000000000000000000000000000000000000000000008152600401610ad790613457565b60405180910390fd5b3373ffffffffffffffffffffffffffffffffffffffff16610b0083610c2c565b73ffffffffffffffffffffffffffffffffffffffff1614610b56576040517f08c379a0000000000000000000000000000000000000000000000000000000008152600401610b4d9061360d565b60405180910390fd5b610b61338284611734565b8073ffffffffffffffffffffffffffffffffffffffff163373ffffffffffffffffffffffffffffffffffffffff16837f771a93a0ebcea83223a3544a30cd0c3471725bdc02f38c51de2fd707625c71d460405160405180910390a4610bc4611acf565b5050565b610bd0611ad9565b600161012f60008373ffffffffffffffffffffffffffffffffffffffff1673ffffffffffffffffffffffffffffffffffffffff16815260200190815260200160002060006101000a81548160ff02191690831515021790555050565b600080610c3883611b57565b9050600073ffffffffffffffffffffffffffffffffffffffff168173ffffffffffffffffffffffffffffffffffffffff1603610ca9576040517f08c379a0000000000000000000000000000000000000000000000000000000008152600401610ca090613679565b60405180910390fd5b80915050919050565b60008073ffffffffffffffffffffffffffffffffffffffff168273ffffffffffffffffffffffffffffffffffffffff1603610d22576040517f08c379a0000000000000000000000000000000000000000000000000000000008152600401610d199061370b565b60405180910390fd5b606860008373ffffffffffffffffffffffffffffffffffffffff1673ffffffffffffffffffffffffffffffffffffffff168152602001908152602001600020549050919050565b610d71611ad9565b610d7b6000611b94565b565b60008060019054906101000a900460ff16159050808015610dae5750600160008054906101000a900460ff1660ff16105b80610ddb5750610dbd30611c5a565b158015610dda5750600160008054906101000a900460ff1660ff16145b5b610e1a576040517f08c379a0000000000000000000000000000000000000000000000000000000008152600401610e119061379d565b60405180910390fd5b60016000806101000a81548160ff021916908360ff1602179055508015610e57576001600060016101000a81548160ff0219169083151502179055505b610ecb6040518060400160405280600c81526020017f4149204167656e74204e465400000000000000000000000000000000000000008152506040518060400160405280600381526020017f4149410000000000000000000000000000000000000000000000000000000000815250611c7d565b610ed3611cda565b610edb611d2b565b610ee3611d84565b600061012d819055508015610f455760008060016101000a81548160ff0219169083151502179055507f7f26b83ff96e1f2b6a682f133852f6798a09c465da95921460cefb38474024986001604051610f3c919061380f565b60405180910390a15b50565b600060c960009054906101000a900473ffffffffffffffffffffffffffffffffffffffff16905090565b606060668054610f81906132b6565b80601f0160208091040260200160405190810160405280929190818152602001828054610fad906132b6565b8015610ffa5780601f10610fcf57610100808354040283529160200191610ffa565b820191906000526020600020905b815481529060010190602001808311610fdd57829003601f168201915b5050505050905090565b61101661100f61159d565b8383611ddd565b5050565b61102b61102561159d565b8361169f565b61106a576040517f08c379a0000000000000000000000000000000000000000000000000000000008152600401611061906134e9565b60405180910390fd5b61107684848484611f49565b50505050565b606061108782611552565b60006097600084815260200190815260200160002080546110a7906132b6565b80601f01602080910402602001604051908101604052809291908181526020018280546110d3906132b6565b80156111205780601f106110f557610100808354040283529160200191611120565b820191906000526020600020905b81548152906001019060200180831161110357829003601f168201915b505050505090506000611131611fa5565b90506000815103611146578192505050611189565b60008251111561117b578082604051602001611163929190613866565b60405160208183030381529060405292505050611189565b61118484611fbc565b925050505b919050565b6000611198611ad9565b6111a0611a2d565b61012d54905061012f60008573ffffffffffffffffffffffffffffffffffffffff1673ffffffffffffffffffffffffffffffffffffffff16815260200190815260200160002060009054906101000a900460ff16611233576040517f08c379a000000000000000000000000000000000000000000000000000000000815260040161122a906138d6565b60405180910390fd5b61123d8482612024565b600060405180608001604052808581526020018481526020014281526020014281525090508061012e6000848152602001908152602001600020600082015181600001908161128c9190613a98565b5060208201518160010190816112a29190613a98565b5060408201518160020155606082015181600301559050506112c48284612042565b61012d60008154809291906112d890613b99565b91905055508473ffffffffffffffffffffffffffffffffffffffff16827f3a5398bda6f1f57d6c96834fa9bf02b5517bdc847d14312015a917ba421c31c960405160405180910390a35061132a611acf565b9392505050565b61012d5481565b61012f6020528060005260406000206000915054906101000a900460ff1681565b6000606a60008473ffffffffffffffffffffffffffffffffffffffff1673ffffffffffffffffffffffffffffffffffffffff16815260200190815260200160002060008373ffffffffffffffffffffffffffffffffffffffff1673ffffffffffffffffffffffffffffffffffffffff16815260200190815260200160002060009054906101000a900460ff16905092915050565b6113f5611ad9565b600073ffffffffffffffffffffffffffffffffffffffff168173ffffffffffffffffffffffffffffffffffffffff1603611464576040517f08c379a000000000000000000000000000000000000000000000000000000000815260040161145b90613c53565b60405180910390fd5b61146d81611b94565b50565b60007f80ac58cd000000000000000000000000000000000000000000000000000000007bffffffffffffffffffffffffffffffffffffffffffffffffffffffff1916827bffffffffffffffffffffffffffffffffffffffffffffffffffffffff1916148061153b57507f5b5e139f000000000000000000000000000000000000000000000000000000007bffffffffffffffffffffffffffffffffffffffffffffffffffffffff1916827bffffffffffffffffffffffffffffffffffffffffffffffffffffffff1916145b8061154b575061154a826120e6565b5b9050919050565b61155b8161165e565b61159a576040517f08c379a000000000000000000000000000000000000000000000000000000000815260040161159190613679565b60405180910390fd5b50565b600033905090565b816069600083815260200190815260200160002060006101000a81548173ffffffffffffffffffffffffffffffffffffffff021916908373ffffffffffffffffffffffffffffffffffffffff160217905550808273ffffffffffffffffffffffffffffffffffffffff1661161883610c2c565b73ffffffffffffffffffffffffffffffffffffffff167f8c5be1e5ebec7d5bd14f71427d1e84f3dd0314c0f7b2291e5b200ac8c7c3b92560405160405180910390a45050565b60008073ffffffffffffffffffffffffffffffffffffffff1661168083611b57565b73ffffffffffffffffffffffffffffffffffffffff1614159050919050565b6000806116ab83610c2c565b90508073ffffffffffffffffffffffffffffffffffffffff168473ffffffffffffffffffffffffffffffffffffffff1614806116ed57506116ec8185611359565b5b8061172b57508373ffffffffffffffffffffffffffffffffffffffff1661171384610588565b73ffffffffffffffffffffffffffffffffffffffff16145b91505092915050565b8273ffffffffffffffffffffffffffffffffffffffff1661175482610c2c565b73ffffffffffffffffffffffffffffffffffffffff16146117aa576040517f08c379a00000000000000000000000000000000000000000000000000000000081526004016117a190613ce5565b60405180910390fd5b600073ffffffffffffffffffffffffffffffffffffffff168273ffffffffffffffffffffffffffffffffffffffff1603611819576040517f08c379a000000000000000000000000000000000000000000000000000000000815260040161181090613d77565b60405180910390fd5b6118268383836001612150565b8273ffffffffffffffffffffffffffffffffffffffff1661184682610c2c565b73ffffffffffffffffffffffffffffffffffffffff161461189c576040517f08c379a000000000000000000000000000000000000000000000000000000000815260040161189390613ce5565b60405180910390fd5b6069600082815260200190815260200160002060006101000a81549073ffffffffffffffffffffffffffffffffffffffff02191690556001606860008573ffffffffffffffffffffffffffffffffffffffff1673ffffffffffffffffffffffffffffffffffffffff168152602001908152602001600020600082825403925050819055506001606860008473ffffffffffffffffffffffffffffffffffffffff1673ffffffffffffffffffffffffffffffffffffffff16815260200190815260200160002060008282540192505081905550816067600083815260200190815260200160002060006101000a81548173ffffffffffffffffffffffffffffffffffffffff021916908373ffffffffffffffffffffffffffffffffffffffff160217905550808273ffffffffffffffffffffffffffffffffffffffff168473ffffffffffffffffffffffffffffffffffffffff167fddf252ad1be2c89b69c2b068fc378daa952ba7f163c4a11628f55a4df523b3ef60405160405180910390a4611a288383836001612156565b505050565b600260fb5403611a72576040517f08c379a0000000000000000000000000000000000000000000000000000000008152600401611a6990613de3565b60405180910390fd5b600260fb81905550565b611a858161215c565b6000609760008381526020019081526020016000208054611aa5906132b6565b905014611acc57609760008281526020019081526020016000206000611acb9190612a1f565b5b50565b600160fb81905550565b611ae161159d565b73ffffffffffffffffffffffffffffffffffffffff16611aff610f48565b73ffffffffffffffffffffffffffffffffffffffff1614611b55576040517f08c379a0000000000000000000000000000000000000000000000000000000008152600401611b4c90613e4f565b60405180910390fd5b565b60006067600083815260200190815260200160002060009054906101000a900473ffffffffffffffffffffffffffffffffffffffff169050919050565b600060c960009054906101000a900473ffffffffffffffffffffffffffffffffffffffff1690508160c960006101000a81548173ffffffffffffffffffffffffffffffffffffffff021916908373ffffffffffffffffffffffffffffffffffffffff1602179055508173ffffffffffffffffffffffffffffffffffffffff168173ffffffffffffffffffffffffffffffffffffffff167f8be0079c531659141344cd1fd0a4f28419497f9722a3daafe3b4186f6b6457e060405160405180910390a35050565b6000808273ffffffffffffffffffffffffffffffffffffffff163b119050919050565b600060019054906101000a900460ff16611ccc576040517f08c379a0000000000000000000000000000000000000000000000000000000008152600401611cc390613ee1565b60405180910390fd5b611cd682826122aa565b5050565b600060019054906101000a900460ff16611d29576040517f08c379a0000000000000000000000000000000000000000000000000000000008152600401611d2090613ee1565b60405180910390fd5b565b600060019054906101000a900460ff16611d7a576040517f08c379a0000000000000000000000000000000000000000000000000000000008152600401611d7190613ee1565b60405180910390fd5b611d8261231d565b565b600060019054906101000a900460ff16611dd3576040517f08c379a0000000000000000000000000000000000000000000000000000000008152600401611dca90613ee1565b60405180910390fd5b611ddb61237e565b565b8173ffffffffffffffffffffffffffffffffffffffff168373ffffffffffffffffffffffffffffffffffffffff1603611e4b576040517f08c379a0000000000000000000000000000000000000000000000000000000008152600401611e4290613f4d565b60405180910390fd5b80606a60008573ffffffffffffffffffffffffffffffffffffffff1673ffffffffffffffffffffffffffffffffffffffff16815260200190815260200160002060008473ffffffffffffffffffffffffffffffffffffffff1673ffffffffffffffffffffffffffffffffffffffff16815260200190815260200160002060006101000a81548160ff0219169083151502179055508173ffffffffffffffffffffffffffffffffffffffff168373ffffffffffffffffffffffffffffffffffffffff167f17307eab39ab6107e8899845ad3d59bd9653f200f220920489ca2b5937696c3183604051611f3c9190612b30565b60405180910390a3505050565b611f54848484611734565b611f60848484846123d7565b611f9f576040517f08c379a0000000000000000000000000000000000000000000000000000000008152600401611f9690613fdf565b60405180910390fd5b50505050565b606060405180602001604052806000815250905090565b6060611fc782611552565b6000611fd1611fa5565b90506000815111611ff1576040518060200160405280600081525061201c565b80611ffb8461255e565b60405160200161200c929190613866565b6040516020818303038152906040525b915050919050565b61203e82826040518060200160405280600081525061262c565b5050565b61204b8261165e565b61208a576040517f08c379a000000000000000000000000000000000000000000000000000000000815260040161208190614071565b60405180910390fd5b806097600084815260200190815260200160002090816120aa9190613a98565b507ff8e1a15aba9398e019f0b49df1a4fde98ee17ae345cb5f6b5e2c27f5033e8ce7826040516120da9190612edc565b60405180910390a15050565b60007f01ffc9a7000000000000000000000000000000000000000000000000000000007bffffffffffffffffffffffffffffffffffffffffffffffffffffffff1916827bffffffffffffffffffffffffffffffffffffffffffffffffffffffff1916149050919050565b50505050565b50505050565b600061216782610c2c565b9050612177816000846001612150565b61218082610c2c565b90506069600083815260200190815260200160002060006101000a81549073ffffffffffffffffffffffffffffffffffffffff02191690556001606860008373ffffffffffffffffffffffffffffffffffffffff1673ffffffffffffffffffffffffffffffffffffffff168152602001908152602001600020600082825403925050819055506067600083815260200190815260200160002060006101000a81549073ffffffffffffffffffffffffffffffffffffffff021916905581600073ffffffffffffffffffffffffffffffffffffffff168273ffffffffffffffffffffffffffffffffffffffff167fddf252ad1be2c89b69c2b068fc378daa952ba7f163c4a11628f55a4df523b3ef60405160405180910390a46122a6816000846001612156565b5050565b600060019054906101000a900460ff166122f9576040517f08c379a00000000000000000000000000000000000000000000000000000000081526004016122f090613ee1565b60405180910390fd5b81606590816123089190613a98565b5080606690816123189190613a98565b505050565b600060019054906101000a900460ff1661236c576040517f08c379a000000000000000000000000000000000000000000000000000000000815260040161236390613ee1565b60405180910390fd5b61237c61237761159d565b611b94565b565b600060019054906101000a900460ff166123cd576040517f08c379a00000000000000000000000000000000000000000000000000000000081526004016123c490613ee1565b60405180910390fd5b600160fb81905550565b60006123f88473ffffffffffffffffffffffffffffffffffffffff16611c5a565b15612551578373ffffffffffffffffffffffffffffffffffffffff1663150b7a0261242161159d565b8786866040518563ffffffff1660e01b815260040161244394939291906140e6565b6020604051808303816000875af192505050801561247f57506040513d601f19601f8201168201806040525081019061247c9190614147565b60015b612501573d80600081146124af576040519150601f19603f3d011682016040523d82523d6000602084013e6124b4565b606091505b5060008151036124f9576040517f08c379a00000000000000000000000000000000000000000000000000000000081526004016124f090613fdf565b60405180910390fd5b805181602001fd5b63150b7a0260e01b7bffffffffffffffffffffffffffffffffffffffffffffffffffffffff1916817bffffffffffffffffffffffffffffffffffffffffffffffffffffffff191614915050612556565b600190505b949350505050565b60606000600161256d84612687565b01905060008167ffffffffffffffff81111561258c5761258b612f6d565b5b6040519080825280601f01601f1916602001820160405280156125be5781602001600182028036833780820191505090505b509050600082602001820190505b600115612621578080600190039150507f3031323334353637383961626364656600000000000000000000000000000000600a86061a8153600a858161261557612614614174565b5b049450600085036125cc575b819350505050919050565b61263683836127da565b61264360008484846123d7565b612682576040517f08c379a000000000000000000000000000000000000000000000000000000000815260040161267990613fdf565b60405180910390fd5b505050565b600080600090507a184f03e93ff9f4daa797ed6e38ed64bf6a1f01000000000000000083106126e5577a184f03e93ff9f4daa797ed6e38ed64bf6a1f01000000000000000083816126db576126da614174565b5b0492506040810190505b6d04ee2d6d415b85acef81000000008310612722576d04ee2d6d415b85acef8100000000838161271857612717614174565b5b0492506020810190505b662386f26fc10000831061275157662386f26fc10000838161274757612746614174565b5b0492506010810190505b6305f5e100831061277a576305f5e10083816127705761276f614174565b5b0492506008810190505b612710831061279f57612710838161279557612794614174565b5b0492506004810190505b606483106127c257606483816127b8576127b7614174565b5b0492506002810190505b600a83106127d1576001810190505b80915050919050565b600073ffffffffffffffffffffffffffffffffffffffff168273ffffffffffffffffffffffffffffffffffffffff1603612849576040517f08c379a0000000000000000000000000000000000000000000000000000000008152600401612840906141ef565b60405180910390fd5b6128528161165e565b15612892576040517f08c379a00000000000000000000000000000000000000000000000000000000081526004016128899061425b565b60405180910390fd5b6128a0600083836001612150565b6128a98161165e565b156128e9576040517f08c379a00000000000000000000000000000000000000000000000000000000081526004016128e09061425b565b60405180910390fd5b6001606860008473ffffffffffffffffffffffffffffffffffffffff1673ffffffffffffffffffffffffffffffffffffffff16815260200190815260200160002060008282540192505081905550816067600083815260200190815260200160002060006101000a81548173ffffffffffffffffffffffffffffffffffffffff021916908373ffffffffffffffffffffffffffffffffffffffff160217905550808273ffffffffffffffffffffffffffffffffffffffff16600073ffffffffffffffffffffffffffffffffffffffff167fddf252ad1be2c89b69c2b068fc378daa952ba7f163c4a11628f55a4df523b3ef60405160405180910390a46129f3600083836001612156565b5050565b6040518060800160405280606081526020016060815260200160008152602001600081525090565b508054612a2b906132b6565b6000825580601f10612a3d5750612a5c565b601f016020900490600052602060002090810190612a5b9190612a5f565b5b50565b5b80821115612a78576000816000905550600101612a60565b5090565b6000604051905090565b600080fd5b600080fd5b60007fffffffff0000000000000000000000000000000000000000000000000000000082169050919050565b612ac581612a90565b8114612ad057600080fd5b50565b600081359050612ae281612abc565b92915050565b600060208284031215612afe57612afd612a86565b5b6000612b0c84828501612ad3565b91505092915050565b60008115159050919050565b612b2a81612b15565b82525050565b6000602082019050612b456000830184612b21565b92915050565b600081519050919050565b600082825260208201905092915050565b60005b83811015612b85578082015181840152602081019050612b6a565b60008484015250505050565b6000601f19601f8301169050919050565b6000612bad82612b4b565b612bb78185612b56565b9350612bc7818560208601612b67565b612bd081612b91565b840191505092915050565b60006020820190508181036000830152612bf58184612ba2565b905092915050565b6000819050919050565b612c1081612bfd565b8114612c1b57600080fd5b50565b600081359050612c2d81612c07565b92915050565b600060208284031215612c4957612c48612a86565b5b6000612c5784828501612c1e565b91505092915050565b600073ffffffffffffffffffffffffffffffffffffffff82169050919050565b6000612c8b82612c60565b9050919050565b612c9b81612c80565b82525050565b6000602082019050612cb66000830184612c92565b92915050565b612cc581612c80565b8114612cd057600080fd5b50565b600081359050612ce281612cbc565b92915050565b60008060408385031215612cff57612cfe612a86565b5b6000612d0d85828601612cd3565b9250506020612d1e85828601612c1e565b9150509250929050565b600082825260208201905092915050565b6000612d4482612b4b565b612d4e8185612d28565b9350612d5e818560208601612b67565b612d6781612b91565b840191505092915050565b612d7b81612bfd565b82525050565b60006080830160008301518482036000860152612d9e8282612d39565b91505060208301518482036020860152612db88282612d39565b9150506040830151612dcd6040860182612d72565b506060830151612de06060860182612d72565b508091505092915050565b60006020820190508181036000830152612e058184612d81565b905092915050565b600080600060608486031215612e2657612e25612a86565b5b6000612e3486828701612cd3565b9350506020612e4586828701612cd3565b9250506040612e5686828701612c1e565b9150509250925092565b60008060408385031215612e7757612e76612a86565b5b6000612e8585828601612c1e565b9250506020612e9685828601612cd3565b9150509250929050565b600060208284031215612eb657612eb5612a86565b5b6000612ec484828501612cd3565b91505092915050565b612ed681612bfd565b82525050565b6000602082019050612ef16000830184612ecd565b92915050565b612f0081612b15565b8114612f0b57600080fd5b50565b600081359050612f1d81612ef7565b92915050565b60008060408385031215612f3a57612f39612a86565b5b6000612f4885828601612cd3565b9250506020612f5985828601612f0e565b9150509250929050565b600080fd5b600080fd5b7f4e487b7100000000000000000000000000000000000000000000000000000000600052604160045260246000fd5b612fa582612b91565b810181811067ffffffffffffffff82111715612fc457612fc3612f6d565b5b80604052505050565b6000612fd7612a7c565b9050612fe38282612f9c565b919050565b600067ffffffffffffffff82111561300357613002612f6d565b5b61300c82612b91565b9050602081019050919050565b82818337600083830152505050565b600061303b61303684612fe8565b612fcd565b90508281526020810184848401111561305757613056612f68565b5b613062848285613019565b509392505050565b600082601f83011261307f5761307e612f63565b5b813561308f848260208601613028565b91505092915050565b600080600080608085870312156130b2576130b1612a86565b5b60006130c087828801612cd3565b94505060206130d187828801612cd3565b93505060406130e287828801612c1e565b925050606085013567ffffffffffffffff81111561310357613102612a8b565b5b61310f8782880161306a565b91505092959194509250565b600067ffffffffffffffff82111561313657613135612f6d565b5b61313f82612b91565b9050602081019050919050565b600061315f61315a8461311b565b612fcd565b90508281526020810184848401111561317b5761317a612f68565b5b613186848285613019565b509392505050565b600082601f8301126131a3576131a2612f63565b5b81356131b384826020860161314c565b91505092915050565b6000806000606084860312156131d5576131d4612a86565b5b60006131e386828701612cd3565b935050602084013567ffffffffffffffff81111561320457613203612a8b565b5b6132108682870161318e565b925050604084013567ffffffffffffffff81111561323157613230612a8b565b5b61323d8682870161318e565b9150509250925092565b6000806040838503121561325e5761325d612a86565b5b600061326c85828601612cd3565b925050602061327d85828601612cd3565b9150509250929050565b7f4e487b7100000000000000000000000000000000000000000000000000000000600052602260045260246000fd5b600060028204905060018216806132ce57607f821691505b6020821081036132e1576132e0613287565b5b50919050565b7f4552433732313a20617070726f76616c20746f2063757272656e74206f776e6560008201527f7200000000000000000000000000000000000000000000000000000000000000602082015250565b6000613343602183612b56565b915061334e826132e7565b604082019050919050565b6000602082019050818103600083015261337281613336565b9050919050565b7f4552433732313a20617070726f76652063616c6c6572206973206e6f7420746f60008201527f6b656e206f776e6572206f7220617070726f76656420666f7220616c6c000000602082015250565b60006133d5603d83612b56565b91506133e082613379565b604082019050919050565b60006020820190508181036000830152613404816133c8565b9050919050565b7f4552433732313a20746f6b656e204944206e6f7420666f756e64000000000000600082015250565b6000613441601a83612b56565b915061344c8261340b565b602082019050919050565b6000602082019050818103600083015261347081613434565b9050919050565b7f4552433732313a2063616c6c6572206973206e6f7420746f6b656e206f776e6560008201527f72206f7220617070726f76656400000000000000000000000000000000000000602082015250565b60006134d3602d83612b56565b91506134de82613477565b604082019050919050565b60006020820190508181036000830152613502816134c6565b9050919050565b7f4f6e6c7920746865206f776e65722063616e206275726e2074686520746f6b6560008201527f6e00000000000000000000000000000000000000000000000000000000000000602082015250565b6000613565602183612b56565b915061357082613509565b604082019050919050565b6000602082019050818103600083015261359481613558565b9050919050565b7f4f6e6c7920746865206f776e65722063616e207472616e73666572207468652060008201527f746f6b656e000000000000000000000000000000000000000000000000000000602082015250565b60006135f7602583612b56565b91506136028261359b565b604082019050919050565b60006020820190508181036000830152613626816135ea565b9050919050565b7f4552433732313a20696e76616c696420746f6b656e2049440000000000000000600082015250565b6000613663601883612b56565b915061366e8261362d565b602082019050919050565b6000602082019050818103600083015261369281613656565b9050919050565b7f4552433732313a2061646472657373207a65726f206973206e6f74206120766160008201527f6c6964206f776e65720000000000000000000000000000000000000000000000602082015250565b60006136f5602983612b56565b915061370082613699565b604082019050919050565b60006020820190508181036000830152613724816136e8565b9050919050565b7f496e697469616c697a61626c653a20636f6e747261637420697320616c72656160008201527f647920696e697469616c697a6564000000000000000000000000000000000000602082015250565b6000613787602e83612b56565b91506137928261372b565b604082019050919050565b600060208201905081810360008301526137b68161377a565b9050919050565b6000819050919050565b600060ff82169050919050565b6000819050919050565b60006137f96137f46137ef846137bd565b6137d4565b6137c7565b9050919050565b613809816137de565b82525050565b60006020820190506138246000830184613800565b92915050565b600081905092915050565b600061384082612b4b565b61384a818561382a565b935061385a818560208601612b67565b80840191505092915050565b60006138728285613835565b915061387e8284613835565b91508190509392505050565b7f55736572206e6f74207665726966696564000000000000000000000000000000600082015250565b60006138c0601183612b56565b91506138cb8261388a565b602082019050919050565b600060208201905081810360008301526138ef816138b3565b9050919050565b60008190508160005260206000209050919050565b60006020601f8301049050919050565b600082821b905092915050565b6000600883026139587fffffffffffffffffffffffffffffffffffffffffffffffffffffffffffffffff8261391b565b613962868361391b565b95508019841693508086168417925050509392505050565b600061399561399061398b84612bfd565b6137d4565b612bfd565b9050919050565b6000819050919050565b6139af8361397a565b6139c36139bb8261399c565b848454613928565b825550505050565b600090565b6139d86139cb565b6139e38184846139a6565b505050565b5b81811015613a07576139fc6000826139d0565b6001810190506139e9565b5050565b601f821115613a4c57613a1d816138f6565b613a268461390b565b81016020851015613a35578190505b613a49613a418561390b565b8301826139e8565b50505b505050565b600082821c905092915050565b6000613a6f60001984600802613a51565b1980831691505092915050565b6000613a888383613a5e565b9150826002028217905092915050565b613aa182612b4b565b67ffffffffffffffff811115613aba57613ab9612f6d565b5b613ac482546132b6565b613acf828285613a0b565b600060209050601f831160018114613b025760008415613af0578287015190505b613afa8582613a7c565b865550613b62565b601f198416613b10866138f6565b60005b82811015613b3857848901518255600182019150602085019450602081019050613b13565b86831015613b555784890151613b51601f891682613a5e565b8355505b6001600288020188555050505b505050505050565b7f4e487b7100000000000000000000000000000000000000000000000000000000600052601160045260246000fd5b6000613ba482612bfd565b91507fffffffffffffffffffffffffffffffffffffffffffffffffffffffffffffffff8203613bd657613bd5613b6a565b5b600182019050919050565b7f4f776e61626c653a206e6577206f776e657220697320746865207a65726f206160008201527f6464726573730000000000000000000000000000000000000000000000000000602082015250565b6000613c3d602683612b56565b9150613c4882613be1565b604082019050919050565b60006020820190508181036000830152613c6c81613c30565b9050919050565b7f4552433732313a207472616e736665722066726f6d20696e636f72726563742060008201527f6f776e6572000000000000000000000000000000000000000000000000000000602082015250565b6000613ccf602583612b56565b9150613cda82613c73565b604082019050919050565b60006020820190508181036000830152613cfe81613cc2565b9050919050565b7f4552433732313a207472616e7366657220746f20746865207a65726f2061646460008201527f7265737300000000000000000000000000000000000000000000000000000000602082015250565b6000613d61602483612b56565b9150613d6c82613d05565b604082019050919050565b60006020820190508181036000830152613d9081613d54565b9050919050565b7f5265656e7472616e637947756172643a207265656e7472616e742063616c6c00600082015250565b6000613dcd601f83612b56565b9150613dd882613d97565b602082019050919050565b60006020820190508181036000830152613dfc81613dc0565b9050919050565b7f4f776e61626c653a2063616c6c6572206973206e6f7420746865206f776e6572600082015250565b6000613e39602083612b56565b9150613e4482613e03565b602082019050919050565b60006020820190508181036000830152613e6881613e2c565b9050919050565b7f496e697469616c697a61626c653a20636f6e7472616374206973206e6f74206960008201527f6e697469616c697a696e67000000000000000000000000000000000000000000602082015250565b6000613ecb602b83612b56565b9150613ed682613e6f565b604082019050919050565b60006020820190508181036000830152613efa81613ebe565b9050919050565b7f4552433732313a20617070726f766520746f2063616c6c657200000000000000600082015250565b6000613f37601983612b56565b9150613f4282613f01565b602082019050919050565b60006020820190508181036000830152613f6681613f2a565b9050919050565b7f4552433732313a207472616e7366657220746f206e6f6e20455243373231526560008201527f63656976657220696d706c656d656e7465720000000000000000000000000000602082015250565b6000613fc9603283612b56565b9150613fd482613f6d565b604082019050919050565b60006020820190508181036000830152613ff881613fbc565b9050919050565b7f45524337323155524953746f726167653a2055524920736574206f66206e6f6e60008201527f6578697374656e7420746f6b656e000000000000000000000000000000000000602082015250565b600061405b602e83612b56565b915061406682613fff565b604082019050919050565b6000602082019050818103600083015261408a8161404e565b9050919050565b600081519050919050565b600082825260208201905092915050565b60006140b882614091565b6140c2818561409c565b93506140d2818560208601612b67565b6140db81612b91565b840191505092915050565b60006080820190506140fb6000830187612c92565b6141086020830186612c92565b6141156040830185612ecd565b818103606083015261412781846140ad565b905095945050505050565b60008151905061414181612abc565b92915050565b60006020828403121561415d5761415c612a86565b5b600061416b84828501614132565b91505092915050565b7f4e487b7100000000000000000000000000000000000000000000000000000000600052601260045260246000fd5b7f4552433732313a206d696e7420746f20746865207a65726f2061646472657373600082015250565b60006141d9602083612b56565b91506141e4826141a3565b602082019050919050565b60006020820190508181036000830152614208816141cc565b9050919050565b7f4552433732313a20746f6b656e20616c7265616479206d696e74656400000000600082015250565b6000614245601c83612b56565b91506142508261420f565b602082019050919050565b6000602082019050818103600083015261427481614238565b905091905056fea2646970667358221220851306fb55dcd405fe3eb60f46576eecbf3b8ac255988bb172adb7476109c23264736f6c63430008140033",
  "linkReferences": {},
  "deployedLinkReferences": {}
}